:100000004BC034C464C063C062C061C060C05FC024
:100010005EC09EC15CC05BC05AC059C058C057C0CA
:1000200056C055C054C00600FF0901A101150026A5
:10003000FF00750895010900B20201C0040309041C
:1000400012034F00700065006E00570061007600DB
:100050006500120355005300420052006100640025
:1000600069006F001201100100000008C016DF05D2
:1000700000010102000109022200010100801409AF
:100080000400000103000000092101010001221603
:10009000000705810308006411241FBECFE5D4E0EA
:1000A000DEBFCDBF11E0A0E6B0E0EEE1F6E102C0B8
:1000B00005900D92AE37B107D9F711E0AEE7B1E088
:1000C00001C01D92A53CB107E1F722D0A6CA98CF86
:1000D0001EBC8AEF8DBD84E28CBD95E09BBD8CED8E
:1000E0008ABD99BD88BD97BD86BD1FBC81E08EBD10
:1000F00084E089BF089584B38C7F84BB85B38C7FF3
:1001000085BB81EE87B984EC86B980E180BF089514
:10011000CF93DF9310928A0147D28C9A87D1939A1A
:1001200080E395E70197F1F7BCD160916800709189
:10013000690080916A0090916B00D2D11092850184
:100140008C987894CCE2D1E03CD29A991FC060910F
:1001500068007091690080916A0090916B006C5901
:100160007F4F8F4F9F4F609368007093690080931B
:100170006A0090936B00B4D180EA9FE0FE01319752
:10018000F1F70197D9F780E690E020C09B99DCCF8A
:10019000609168007091690080916A0090916B0095
:1001A000645670408040904060936800709369008E
:1001B00080936A0090936B0093D180EA9FE0FE01E8
:1001C0003197F1F70197D9F784E690E02DD1BCCFB4
:1001D000FC01808190E0807690708034910509F078
:1001E00046C08181813031F582E080938501828132
:1001F000209168003091690040916A0050916B0035
:1002000080FF07C0CA01B9016C597F4F8F4F9F4FC4
:1002100006C0CA01B90164567040804090406093A6
:1002200068007093690080936A0090936B0058D1C6
:1002300080E00895823031F581E0809385018091DE
:10024000680090916900A0916A00B0916B00809362
:100250007E0190937F01A0938001B09381018EE78E
:1002600091E09093AA018093A90184E0089580977A
:1002700049F48181833031F410928A0180938501A1
:100280008FEF089580E008951F93482F792F162F40
:1002900080918501833041F520918A0130E02A5711
:1002A0003E4FC901642F412F50E0AED980918A01A1
:1002B000810F80938A01843010F480E016C0609131
:1002C00086017091870180918801909189016093E6
:1002D00068007093690080936A0090936B0000D16E
:1002E0001092850110928A0181E01F9108955D9B13
:1002F000FECF8CB908955F9BFECF8CB10895FC01B1
:1003000004C05D9BFECF31968CB980818823C9F7EC
:100310005D9BFECF8DE08CB95D9BFECF8AE08CB9F2
:100320000895282F5D9BFECF822F6AE02AD9805D39
:100330008CB95D9BFECF822F6AE023D9905D9CB97A
:10034000089585E083BF8CE482BF80E189BF089572
:100350001F920F920FB60F9211242F933F934F933A
:100360005F936F937F938F939F93AF93BF93EF931D
:10037000FF938CE482BF809182019091830101966A
:1003800090938301809382014497A1F51092830199
:100390001092820180918E018F5F80938E018C3349
:1003A000A1F410928E0180918D018F5F80938D0159
:1003B0008C3359F410928D0180918C018F5F809362
:1003C0008C01883111F410928C015D9BFECF8DE081
:1003D0008CB980918C01A5DF5D9BFECF8AE38CB93F
:1003E00080918D019EDF5D9BFECF8AE38CB9809169
:1003F0008E0197DFFF91EF91BF91AF919F918F9108
:100400007F916F915F914F913F912F910F900FBE10
:100410000F901F90189586E880BD86E289B910BCC0
:100420001BB888E18AB908956ADF08958B9A84B36E
:10043000837C84BB85B38C6385BB93980895AC01A2
:1004400084EA86BF06B607FEFDCF81B1887F88307B
:10045000E9F480EC83B984E886BF06B607FEFDCFD9
:1004600081B1887F883181F420E030E094E8FA019E
:10047000E20FF31F808183B996BF06B607FEFDCF5A
:1004800081B1887F883221F084E986BF80E00895B9
:100490002F5F3F4F2530310551F784E986BF81E05A
:1004A0000895DF93CF9300D000D00F92CDB7DEB781
:1004B00080E980B984E086BF89E2898385EF8A83F9
:1004C00080E68B8382E18C831D82CE010196B7DFAB
:1004D0000F900F900F900F900F90CF91DF91089594
:1004E000DF93CF9300D000D00F92CDB7DEB79B0142
:1004F000AC018B8184FF0CC02F513F4F4F4F5F4F9A
:1005000092E0220F331F441F551F9A95D1F70BC05D
:1005100082E0220F331F441F551F8A95D1F72458BC
:10052000334040405040CA01B901C1D52FE632E105
:1005300043E052E499D4D4D2862F672F8A836F7315
:1005400069831B8282E18C831D82CE01019677DF55
:100550000F900F900F900F900F90CF91DF91089513
:100560000F931F9384EA86BF06B607FEFDCF81EC8A
:1005700083B984E886BF06B607FEFDCF10E004E825
:1005800006BF06B607FEFDCF8CE690E04DDF83B1D7
:10059000C8DE80E790E048DF1F5F153089F784E907
:1005A00086BF1F910F91089585B7826085BF8BB775
:1005B00080648BBF8BE480939B018AE580939A01D2
:1005C00008951F93CF93DF936091AB01635067FD54
:1005D000B8C08091A801CCE0D0E0C81BD109C155BA
:1005E000DE4F8091A7018D3209F099C0683009F083
:1005F000A6C083EC80938F018AE5809373001092EC
:1006000084018881807639F0CE01E2DD282F8F3F8A
:1006100009F474C07AC09A81109298018981882364
:1006200021F41092990122E062C0853019F4909370
:10063000AC015CC0863009F045C08B81813019F473
:1006400084E690E020C0823041F486E790E0909309
:10065000AA018093A90122E231C08330D1F48A81BA
:10066000882341F48CE390E09093AA018093A90140
:1006700024E024C0813019F480E490E004C082308A
:10068000E1F482E590E09093AA018093A90122E130
:1006900015C0813241F488E890E09093AA018093DC
:1006A000A90129E00BC0823241F486E290E09093E8
:1006B000AA018093A90126E101C020E080E4809393
:1006C000840123C0883021F421E08EEA91E011C03A
:1006D000893019F49093AE0109C08A3011F421E0F9
:1006E00006C08B3019F48BE480939B0120E088E9ED
:1006F00091E09093AA018093A90107C0888187FDAA
:100700002E8180E88093840106C08F81882319F4AC
:100710008E81821708F0822F8093740010C0809120
:10072000840187FF0CC0CE01AFDD8F3F21F48EE145
:100730008093730004C0882311F01092740010920B
:10074000AB018091730084FF49C0809174008F3F9A
:1007500009F444C0182F893008F018E0811B8093F9
:10076000740080918F0198E8892780938F0111236D
:1007700041F12091A9013091AA018091840186FF65
:100780000DC0A0E9B1E080E090E0F901E80FF91FA9
:10079000E491ED9301961817C1F708C0912FD90184
:1007A000E0E9F1E08D9181939150E1F71150812FB3
:1007B00090E01F5F0196820F931F9093AA01809390
:1007C000A90180E991E0612F4DD0612F6C5F6C3001
:1007D00019F08FEF809374006093730094E180B3FD
:1007E000847131F49150D9F71092AC011092A601A6
:1007F000DF91CF911F9108951F93DC01162F8091F7
:100800009A0184FF07C080919B0198E88927809313
:100810009B0103C08AE580939A01912FECE9F1E0F6
:100820008D9181939150E1F78CE991E0612F1AD07D
:100830001C5F10939A011F910895A82FB92F80E093
:1008400090E041E050EA609530E009C02D918227A8
:100850009795879510F084279527305EC8F36F5FD2
:10086000A8F30895EADF8D939D930895CF93CFB7B2
:10087000CF93C395849BE9F7849B09C0849B07C0F1
:10088000849B05C0849B03C0849B01C0A3C0DF93ED
:10089000C091A801DD27C155DE4F849B02C0DF91C6
:1008A000EBCF2F930F931F9300B32FEF04FB20F98F
:1008B0004F933F9310B34FEF012704FB21F93BE027
:1008C00031C04E7F012F10B3216028C0102F4D7F03
:1008D0002260000000B329C04B7F2460012F00007C
:1008E00010B32BC010B3477F28602AC04F7E00B3DF
:1008F00020612CC04F7D10B320622FC04F7B00B30E
:10090000206432C0422700B349934FEF0000102704
:1009100014FB20F910B31471C9F1297F91F201275A
:1009200004FB21F900B3237F89F2315058F11027DD
:1009300014FB22F910B3277E79F2012704FB23F977
:100940002F7C81F200B3102714FB24F92F7971F268
:1009500000C010B3012704FB25F92F7359F200C022
:1009600000B3102714FB26F9223040F200C010B368
:10097000012704FB27F9243028F64F77206810B3AD
:100980000000F9CF10E41ABF002719C03B50319581
:10099000C31BD04010E41ABF0881033CF9F00B34AC
:1009A000E9F02091A6011981110F1213EDCF4A81B0
:1009B000441F093641F10D3211F0013E29F7009331
:1009C000AD013F914F911F910F912F91DF91CAB7C8
:1009D000C6FD4FCFCF91CFBFCF9118952091AD01DC
:1009E000222379F31091AB01112369F534306AF1B8
:1009F0003093AB012093A7011091A8013BE0311B7C
:100A00003093A80122C00091AB010130E4F40AE563
:100A10004F7049F43091730034FD19C00093730096
:100A2000CFE8D1E018C030919A0134FD10C0009396
:100A30009A01CBE9D1E00FC02795A8F45150A9F451
:100A4000220F0000F9CF4AE503C042ED01C0432F59
:100A5000C4E1D0E032E011B31461949A11BB02B347
:100A600020E414E15F93012756E002BB279520F4B0
:100A7000515021F4220FF9CF012756E000003B5AD4
:100A800002BBD0F2279528F4515029F4220F000020
:100A9000F9CF012756E0279502BB20F4515021F4ED
:100AA000220FF9CF012756E02991332302BB21F60B
:100AB0000B7E1091AC01110FC651D04002BB11F05A
:100AC0001093A60110E41ABF006111B31B7E402FE2
:100AD0004B7E5F9100C000C002BB11BB42BB71CF17
:100AE000EF92FF920F931F937B018C0120E030E087
:100AF00040E05FE460D288237CF0C801B70120E0C9
:100B000030E040E05FE45ED181D29B01AC01205037
:100B100030404040504805C0C801B70177D29B0122
:100B2000AC01B901CA011F910F91FF90EF90089598
:100B3000A0E0B0E0EDE9F5E030C5DC012B01FA0101
:100B40009C91923008F439C1EB018881823008F41D
:100B500033C1943069F4843009F02FC111969C910F
:100B600011978981981709F428C1A5E7B0E025C13C
:100B7000843009F421C18230A9F4923009F01DC1FA
:100B80009A01AD0188E0EA010990AE01E9010992FC
:100B90009E018150C1F7E201898111969C918923C0
:100BA000818308C1923009F407C112962D903C90C0
:100BB0001397EB018A819B811496AD90BD90CD90E7
:100BC000DC901797EC80FD800E811F819101281B1E
:100BD000390BB90137FF04C066277727621B730BF7
:100BE000603271050CF061C0121613066CF5370106
:100BF0004801062E04C096948794779467940A94CB
:100C0000D2F721E030E040E050E004C0220F331F73
:100C1000441F551F6A95D2F7215030404040504044
:100C20002E213F2140235123211531054105510536
:100C300021F021E030E040E050E079018A01E6282F
:100C4000F728082919293CC0232BD1F1260E371E7D
:100C500035014601062E04C09694879477946794D4
:100C60000A94D2F721E030E040E050E004C0220FC7
:100C7000331F441F551F6A95D2F721503040404022
:100C800050402A213B214C215D2121153105410590
:100C9000510521F021E030E040E050E059016A01C7
:100CA000A628B728C828D9280BC0821593052CF090
:100CB0001C01AA24BB24650103C0EE24FF24870184
:100CC00011969C91D20111968C91981709F445C008
:100CD000992339F0A80197012A193B094C095D09AC
:100CE00006C0A60195012E193F09400B510B57FD77
:100CF00008C011823382228224833583468357833E
:100D00001DC081E081833382228288279927DC01FC
:100D1000821B930BA40BB50B84839583A683B783A7
:100D20000DC0220F331F441F551F24833583468374
:100D300057838281938101979383828324813581B4
:100D400046815781DA01C9010197A109B1098F5F75
:100D50009F4FAF4FBF4328F30BC091833382228252
:100D6000EA0CFB1C0C1D1D1DE482F5820683178313
:100D700083E08083248135814681578157FF1AC0E3
:100D8000C901AA2797FDA095BA2F81709070A07015
:100D9000B0705695479537952795822B932BA42BAA
:100DA000B52B84839583A683B78382819381019633
:100DB00093838283DF0101C0D201CD01CDB7DEB7BD
:100DC000E2E107C4A0E2B0E0E7EEF6E0F2C3698337
:100DD0007A838B839C832D833E834F835887E9E0FE
:100DE000EE2EF12CEC0EFD1ECE010196B701F8D2CD
:100DF0008E010F5E1F4FCE010596B801F1D28A8990
:100E000091E089278A8BC701B801AE01475E5F4F29
:100E10008FDE11D2A096E6E0E8C3A0E2B0E0E2E106
:100E2000F7E0C7C369837A838B839C832D833E83DA
:100E30004F835887F9E0EF2EF12CEC0EFD1ECE010A
:100E40000196B701CDD28E010F5E1F4FCE010596E0
:100E5000B801C6D2C701B801AE01475E5F4F68DE78
:100E6000EAD1A096E6E0C1C3A8E1B0E0E9E3F7E08B
:100E70009CC369837A838B839C832D833E834F83BA
:100E80005887B9E0EB2EF12CEC0EFD1ECE01019639
:100E9000B701A6D28E010F5E1F4FCE010596B80195
:100EA0009FD22985223008F47EC03989323010F46F
:100EB000B8017CC08A859A8989278A87243011F0F5
:100EC000223031F4231709F06EC065E770E06EC080
:100ED000343039F41D861E861F86188A1C861B86B0
:100EE00004C0323021F484E08987B7015FC02B85CC
:100EF0003C858B899C89281B390B3C872B87ED848B
:100F0000FE840F851889AD88BE88CF88D88CEA14F6
:100F1000FB040C051D0540F4EE0CFF1C001F111F07
:100F2000215030403C872B8720E030E040E050E00B
:100F300080E090E0A0E0B0E460E070E0EA14FB0440
:100F40000C051D0540F0282B392B4A2B5B2BEA188A
:100F5000FB080C091D09B695A79597958795EE0C8A
:100F6000FF1C001F111F6F5F7F4F6F31710531F73D
:100F7000DA01C9018F779070A070B070803491054C
:100F8000A105B10561F427FD0AC0E114F1040105D2
:100F9000110529F0205C3F4F4F4F5F4F20782D8780
:100FA0003E874F87588BBE01675F7F4FCB0143D190
:100FB0006896EAE016C3A8E1B0E0E0EEF7E0F9C217
:100FC00069837A838B839C832D833E834F835887E9
:100FD00089E0E82EF12CEC0EFD1ECE010196B70142
:100FE000FFD18E010F5E1F4FCE010596B801F8D1DB
:100FF0008985823038F08989823020F0C701B801B4
:1010000067D201C08FEF6896E6E0EFC2ACE0B0E0D7
:10101000EBE0F8E0D2C269837A838B839C83CE01B4
:101020000196BE016B5F7F4FDBD18D81823061F114
:10103000823050F1843021F48E81882351F12EC00A
:101040002F81388537FD20C06E812F3131051CF08E
:101050006623F9F023C08EE190E0821B930B298573
:101060003A854B855C8504C05695479537952795FD
:101070008A95D2F76623B1F0509540953095219529
:101080003F4F4F4F5F4F0EC020E030E040E050E058
:1010900009C02FEF3FEF4FEF5FE704C020E030E0E3
:1010A00040E050E8B901CA012C96E2E0A2C2A8E0F3
:1010B000B0E0ECE5F8E079C27B018C0161157105C7
:1010C0008105910519F482E089835FC083E08983FB
:1010D0008EE1C82ED12CDC82CB82ED82FE820F8382
:1010E0001887C801B70158D0FC013197F7FF3BC002
:1010F000222733272E1B3F0B57016801022E04C005
:10110000D694C794B794A7940A94D2F740E050E0DD
:1011100060E070E081E090E0A0E0B0E004C0880F03
:10112000991FAA1FBB1F2A95D2F70197A109B109E0
:101130008E219F21A023B1230097A105B10521F0A5
:1011400041E050E060E070E04A295B296C297D298C
:101150004D835E836F8378878EE190E08E1B9F0BBB
:101160009C838B8312C0309781F00E2E04C0EE0C4E
:10117000FF1C001F111F0A94D2F7ED82FE820F831D
:101180001887CE1ADF0ADC82CB821A82CE01019642
:1011900052D02896EAE025C2EF92FF920F931F9358
:1011A0007B018C0180E0E81680E0F80681E008070A
:1011B00080E0180788F48FEFE816F10401051105A7
:1011C00031F028F088E090E0A0E0B0E017C080E0C7
:1011D00090E0A0E0B0E012C080E0E81680E0F80601
:1011E00080E0080781E0180728F088E190E0A0E09F
:1011F000B0E004C080E190E0A0E0B0E020E230E0A8
:1012000040E050E0281B390B4A0B5B0B04C01695DD
:101210000795F794E7948A95D2F7F701E358FF4FC3
:101220008081281B310941095109C9011F910F9182
:10123000FF90EF900895DF92EF92FF920F931F932C
:10124000FC01E480F58006811781D18080818230A5
:1012500048F480E090E0A0E1B0E0E82AF92A0A2B07
:101260001B2BA5C0843009F49FC0823021F4EE24EA
:10127000FF24870105C0E114F1040105110519F4EB
:10128000E0E0F0E096C0628173819FEF62387907F9
:101290000CF05BC022E83FEF261B370B2A313105EB
:1012A0002CF020E030E040E050E02AC0B801A70177
:1012B000022E04C076956795579547950A94D2F704
:1012C00081E090E0A0E0B0E004C0880F991FAA1F61
:1012D000BB1F2A95D2F70197A109B1098E219F2141
:1012E000A023B1230097A105B10521F081E090E092
:1012F000A0E0B0E09A01AB01282B392B4A2B5B2BE5
:10130000DA01C9018F779070A070B07080349105B8
:10131000A105B10539F427FF09C0205C3F4F4F4FAD
:101320005F4F04C0215C3F4F4F4F5F4FE0E0F0E064
:101330002030A0E03A07A0E04A07A0E45A0710F0E6
:10134000E1E0F0E079018A0127C06038710564F5B9
:10135000FB01E158FF4FD801C7018F779070A07053
:10136000B07080349105A105B10539F4E7FE0DC0D8
:1013700080E490E0A0E0B0E004C08FE390E0A0E063
:10138000B0E0E80EF91E0A1F1B1F17FF05C01695D7
:101390000795F794E794319687E016950795F794AB
:1013A000E7948A95D1F705C0EE24FF248701EFEF7B
:1013B000F0E06E2F679566276795902F9F77D794FB
:1013C000DD24D7948E2F8695492F462B582F5D29E3
:1013D000B701CA011F910F91FF90EF90DF90089520
:1013E000FC01DB01408151812281622F6F7770E027
:1013F000221F2227221F9381892F880F822B282FBB
:1014000030E0991F9927991F11969C9311972115E8
:101410003105A9F5411551056105710511F482E009
:1014200037C082E89FEF13969C938E9312979A0190
:10143000AB0167E0220F331F441F551F6A95D1F798
:1014400083E08C930DC0220F331F441F551F12964B
:101450008D919C911397019713969C938E9312975D
:10146000203080E0380780E0480780E4580758F3D0
:1014700014962D933D934D935C93179708952F3FAA
:10148000310579F4411551056105710519F484E0C0
:101490008C93089564FF03C081E08C9312C01C926A
:1014A00010C02F57304013963C932E93129783E031
:1014B0008C9387E0440F551F661F771F8A95D1F7DD
:1014C000706414964D935D936D937C931797089574
:1014D0001F93DC01FB019C91923008F447C080818E
:1014E000823008F443C0943051F411961C9184303A
:1014F00099F58181682F70E0611B71093FC08430CC
:1015000021F0923031F48230B9F18181882389F160
:101510002DC011961C9111978230F1F0818118171E
:10152000D9F412962D913C91139782819381821761
:10153000930794F028173907BCF014968D919D916C
:101540000D90BC91A02D24813581468157812817AB
:1015500039074A075B0718F4112341F00AC08217C4
:101560009307A407B50740F4112319F061E070E078
:1015700005C06FEF7FEF02C060E070E0CB011F910C
:101580000895991B79E004C0991F961708F0961BDF
:10159000881F7A95C9F7809508952F923F924F92B0
:1015A0005F926F927F928F929F92AF92BF92CF92F3
:1015B000DF92EF92FF920F931F93CF93DF93CDB7FC
:1015C000DEB7CA1BDB0B0FB6F894DEBF0FBECDBF74
:1015D00009942A88398848885F846E847D848C8445
:1015E0009B84AA84B984C884DF80EE80FD800C814E
:1015F0001B81AA81B981CE0FD11D0FB6F894DEBF31
:101600000FBECDBFED010895FB01DC0102C00190CA
:0E1610000D9241505040D8F70895F894FFCF46
:10161E002B0D0A002D0D0A001C83010072643A0086
:10162E000D0A005AFF000000000000000000010239
:10163E00020303030304040404040404040505055F
:10164E000505050505050505050505050506060639
:10165E00060606060606060606060606060606061C
:10166E000606060606060606060606060607070709
:10167E0007070707070707070707070707070707EC
:10168E0007070707070707070707070707070707DC
:10169E0007070707070707070707070707070707CC
:1016AE0007070707070707070707070707080808B9
:1016BE00080808080808080808080808080808089C
:1016CE00080808080808080808080808080808088C
:1016DE00080808080808080808080808080808087C
:1016EE00080808080808080808080808080808086C
:1016FE00080808080808080808080808080808085C
:10170E00080808080808080808080808080808084B
:10171E00080808080808080808080808080808083B
:0E172E00080808080808080808080808080045
:00000001FF
