:100000004BC0CDC165C064C063C062C061C060C088
:100010005FC05EC05DC05CC05BC05AC059C058C004
:1000200057C056C055C009022200010100802809AE
:100030000400000103000000092101010001221653
:100040000007058103080064120110010000000888
:10005000C016DF0500010102000112035500530024
:10006000420052006100640069006F0012034F00FB
:10007000700065006E0057006100760065000403A3
:1000800009040600FF0901A101150026FF007508FB
:1000900095010900B20201C011241FBECFE5D4E0D2
:1000A000DEBFCDBF11E0A0E6B0E0EEECFEE103C0A4
:1000B000C89531960D92A039B107D1F711E0A0E9AA
:1000C000B1E001C01D92A73FB107E1F7A8DAFDCE6C
:1000D00097CFCF93C62F2091A20124FF07C0209174
:1000E000A30138E823272093A30103C02AE5209326
:1000F000A201FC018C2FA4EAB1E091919D93815063
:10010000E1F784EA91E06C2F46D1CC5FC093A20165
:10011000CF910895CF93DF936091B301635067FD52
:10012000C2C02091B0018CE090E0821B9109EC01EB
:10013000C954DE4F2091AF012D3209F0A2C06830C2
:1001400009F0AFC023EC209397012AE520936000CB
:10015000109290012881207631F0CE0186D28F3F17
:1001600009F47EC084C03A811092A0012981222323
:1001700031F41092A10120EA31E082E06CC0253018
:1001800019F43093B40164C0263009F04BC0FC016F
:10019000E754FE4F208186549E4FFC0180818130C0
:1001A00019F488E490E01AC0823041F486E290E0CD
:1001B0009093B2018093B10182E230C08330C9F4E0
:1001C000222341F48EE790E09093B2018093B10135
:1001D00084E024C0213041F48CE690E09093B20199
:1001E0008093B10182E11AC02230B9F48AE590E02F
:1001F000F5CF813241F488E390E09093B20180938F
:10020000B10189E00BC0823241F482E890E0909322
:10021000B2018093B10186E101C080E090E4909347
:10022000900125C0283069F0293019F43093B601C7
:100230000FC02A3049F02B3059F48BE48093A3018E
:1002400007C026EB31E002C020EA31E081E003C0C4
:1002500020EA31E080E03093B2012093B10107C081
:10026000988197FD8E8190E89093900107C09F81BF
:10027000992321F49E81981708F4892F80936100B7
:1002800010C08091900187FF0CC0CE01C2D18F3F7A
:1002900021F48EE18093600004C0882311F0109255
:1002A00061001092B3018091600084FF45C080918D
:1002B00061008F3F09F440C0C82F893008F0C8E0C2
:1002C0008C1B809361008091970198E88927809327
:1002D0009701CC2329F18091B1019091B201209135
:1002E000900126FF0AC0FC012C2FA8E9B1E034914F
:1002F0003D9331962150D9F708C0DC012C2FE8E955
:10030000F1E03D9131932150E1F72C2F215030E065
:100310002F5F3F4F280F391F3093B2012093B10157
:1003200088E991E06C2F37D0CC5FCC3019F08FEF9B
:1003300080936100C093600084E190B3947131F4C4
:100340008150D9F71092B4011092AE01DF91CF9194
:10035000089585B7826085BF8BB780648BBF8BE4BF
:100360008093A3018AE58093A2010895A82FB92F55
:1003700080E090E041E050EA609530E009C02D91C6
:1003800082279795879510F084279527305EC8F3CC
:100390006F5FA8F30895EADF8D939D930895CF933F
:1003A000CFB7CF93C395849BE9F7849B09C0849B07
:1003B00007C0849B05C0849B03C0849B01C0A3C06D
:1003C000DF93C091B001DD27C954DE4F849B02C08A
:1003D000DF91EBCF2F930F931F9300B32FEF04FB0D
:1003E00020F94F933F9310B34FEF012704FB21F9FE
:1003F0003BE031C04E7F012F10B3216028C0102F89
:100400004D7F2260000000B329C04B7F2460012F84
:10041000000010B32BC010B3477F28602AC04F7E66
:1004200000B320612CC04F7D10B320622FC04F7BE2
:1004300000B3206432C0422700B349934FEF00005D
:10044000102714FB20F910B31471C9F1297F91F220
:10045000012704FB21F900B3237F89F2315058F1C1
:10046000102714FB22F910B3277E79F2012704FB31
:1004700023F92F7C81F200B3102714FB24F92F7984
:1004800071F200C010B3012704FB25F92F7359F254
:1004900000C000B3102714FB26F9223040F200C040
:1004A00010B3012704FB27F9243028F64F77206882
:1004B00010B30000F9CF10E41ABF002719C03B5059
:1004C0003195C31BD04010E41ABF0881033CF9F0FA
:1004D0000B34E9F02091AE011981110F1213EDCF09
:1004E0004A81441F093641F10D3211F0013E29F7CE
:1004F0000093B5013F914F911F910F912F91DF9183
:10050000CAB7C6FD4FCFCF91CFBFCF9118952091DD
:10051000B501222379F31091B301112369F5343029
:100520006AF13093B3012093AF011091B0013BE029
:10053000311B3093B00122C00091B3010130E4F4CB
:100540000AE54F7049F43091600034FD19C0009302
:100550006000C7E9D1E018C03091A20134FD10C09D
:100560000093A201C3EAD1E00FC02795A8F451502F
:10057000A9F4220F0000F9CF4AE503C042ED01C003
:10058000432FC4E1D0E032E011B31461949A11BB5F
:1005900002B320E414E15F93012756E002BB2795E4
:1005A00020F4515021F4220FF9CF012756E000002A
:1005B0003B5A02BBD0F2279528F4515029F4220F60
:1005C0000000F9CF012756E0279502BB20F45150D7
:1005D00021F4220FF9CF012756E02991332302BBE2
:1005E00021F60B7E1091B401110FC651D04002BB11
:1005F00011F01093AE0110E41ABF006111B31B7E1D
:10060000402F4B7E5F9100C000C002BB11BB42BBBC
:1006100071CFCF939C01C62F8091F601833001F5F5
:100620008091910190E088519E4FB9014C2F50E08C
:1006300073D9809191018C0F80939101C43090F017
:100640008DEC91E068EE71E044E050E065D9809176
:1006500086008067809386001092F60110929101C7
:1006600081E001C080E0CF910895CF93DF93FC013A
:10067000808190E0807690708034910509F03FC0D1
:100680008181813029F582E08093F6013281809169
:10069000CD019091CE01A091CF01B091D0012091D8
:1006A000860030FF05C08C599F4FAF4FBF4F04C02D
:1006B00084569040A040B0408093CD019093CE01ED
:1006C000A093CF01B093D00120672093860023C070
:1006D000823009F581E08093F601C2E9D1E0CE01D4
:1006E0006DEC71E044E050E017D980918700809371
:1006F0009601D093B201C093B10185E00DC0803264
:10070000910549F48181833031F4109291018093F5
:10071000F6018FEF01C080E0DF91CF910895CF9374
:10072000DF936091CD017091CE018091CF019091C6
:10073000D00124E630E040E050E05ED8C9012DB79A
:100740003EB7285030400FB6F8943EBF0FBE2DBFC5
:10075000EDB7FEB73196C1EDD1E0ADB7BEB7129699
:10076000DC93CE93119722E630E0338322836AE054
:1007700070E02FD87583648397838683D6D81092D0
:10078000E1012DB73EB7285F3F4F0FB6F8943EBF4B
:100790000FBE2DBF80E060E0AE014AD1DF91CF9166
:1007A0000895CF93DF9300D000D000D0EDB7FEB70F
:1007B0003196C1EDD1E0ADB7BEB71296DC93CE93C2
:1007C000119784E790E093838283809187008483EC
:1007D0001582ABD81092E1018DB79EB706960FB681
:1007E000F8949EBF0FBE8DBF80E061E0AE0120D1C6
:1007F000DF91CF910895C9D088B3866088BB87B355
:10080000866087BB8DEC91E060E070E044E050E0F2
:1008100084CA24EA26BF06B607FEFDCF20EC23B922
:1008200024E826BF06B607FEFDCFFC0185E094E86C
:10083000219123B996BF06B607FEFDCF8150C1F7BF
:1008400084E986BF81E0089524EA26BF06B607FE44
:10085000FDCF21EC23B924E826BF06B607FEFDCF65
:10086000FC0185E094EC96BF06B607FEFDCF23B1F0
:1008700021938150C1F784E986BF81E0089595B343
:10088000906395BB94B3906394BB11B890E990B911
:1008900012B894E096BF99E29093F10195EF90938E
:1008A000F20190E69093F301882311F482E303C0F0
:1008B000813019F482E18093F4011092F50181EF07
:1008C00091E0A7CFDC01CB01815E9040A040B04C0D
:1008D00022E0880F991FAA1FBB1F2A95D1F7BC01E0
:1008E000CD0112D42FE632E143E052E4D1D2ACD0B4
:1008F0006093F201E2EFF1E07F737293128282E182
:1009000083831482CF0185CF9698982F84FF02C0ED
:10091000AB9A01C0AB9895FF02C0AA9A01C0AA98F1
:1009200096FF02C0A99A01C0A99887FF02C0A89AA1
:1009300001C0A898979A979890FF02C0AB9A01C0FF
:10094000AB9891FF02C0AA9A01C0AA9892FF02C078
:10095000A99A01C0A99893FF02C0A89A01C0A898BB
:10096000979A9798969A0895979895989698CCDF25
:10097000959A80EA8A95F1F708959798959A9698AE
:10098000C3DF80EA8A95F1F70895CF93DF9384B3AC
:100990008F6084BBB89A81B3806E81BB80E395E79A
:1009A0000197F1F783E3E0DF8AE991E02CE231E09F
:1009B000F9013197F1F70197D9F782E3D5DF88EE96
:1009C00093E02CE231E0F9013197F1F70197D9F783
:1009D00088E2CADF84EF91E02CE231E0F90131973F
:1009E000F1F70197D9F786E0BFDF84EF91E02CE2C1
:1009F00031E0F9013197F1F70197D9F78CE0B4DFD5
:100A0000C8EBDBE0CE010197F1F781E0ADDFCE016D
:100A10000197F1F780E8A8DF2197F1F7DF91CF91F7
:100A200008958F70662311F0805401C080589CCFC8
:100A3000CF93DF93EA01F5DF88819FDF89918823D7
:100A4000D9F7DF91CF910895CF92DF92EF92FF9285
:100A50000F931F93C62ED72EE82EF92E20E030E0FC
:100A600040E05FE4C8D287FD13C09F2D8E2D7D2D01
:100A70006C2D20E030E040E05FE4CDD1F0D2062FD5
:100A8000172F282F392F005010402040304809C020
:100A90009F2D8E2D7D2D6C2DE2D2062F172F282F06
:100AA000392F602F712F822F932F1F910F91FF905D
:100AB000EF90DF90CF900895A0E0B0E0E1E6F5E0A0
:100AC000F5C6C82FD92F862E972EE42FF52F8881B3
:100AD000823008F461C1A62FB72F9C91923008F4A0
:100AE00056C1843059F4943009F056C19981119659
:100AF0008C911197981709F047C14EC1943009F4B1
:100B000046C19230D9F4823009F046C18C2F9D2F16
:100B100028E0A82FB92F0D908A2F9B2FA42FB52F37
:100B20000D924A2F5B2F2150A1F7A82DB92D1196B8
:100B30008C9111979981892381832CC1823009F48A
:100B400026C1AA80BB80A62FB72F12964D915C912B
:100B50001397CC80DD80EE80FF8014960D911D915F
:100B60002D913C9117978A2D9B2D841B950BA82FB7
:100B7000B92F97FF04C0AA27BB27A81BB90BA03227
:100B8000B1050CF072C018161906ACF5402E512EA6
:100B9000622E732E0A2E04C076946794579447945D
:100BA0000A94D2F741E050E060E070E004C0440FE6
:100BB000551F661F771FAA95D2F7415050406040DD
:100BC0007040402351236223732381E090E0A0E032
:100BD000B0E0411551056105710521F480E090E018
:100BE000A0E0B0E0082F192F2A2F3B2F0429152948
:100BF0002629372948C0009709F445C0AA0EBB1E14
:100C00004C2C5D2C6E2C7F2C0A2E04C0769467949D
:100C1000579447940A94D2F741E050E060E070E0C6
:100C200004C0440F551F661F771FAA95D2F7415085
:100C30005040604070404C215D216E217F2181E059
:100C400090E0A0E0B0E0411551056105710521F487
:100C500080E090E0A0E0B0E0C82ED92EEA2EFB2E76
:100C6000C428D528E628F7280EC04A155B052CF4C1
:100C700000E010E020E030E006C0A42EB52ECC2429
:100C8000DD24EE24FF248981A82DB92D11969C9195
:100C90001197891709F44BC0882329F00C191D09F5
:100CA0002E093F090CC0BF2DAE2D9D2D8C2D801B14
:100CB000910BA20BB30B082F192F2A2F3B2F37FDB7
:100CC00004C01182B382A2820BC081E08183B3820F
:100CD000A28230952095109501951F4F2F4F3F4FC1
:100CE00004831583268337830DC0880F991FAA1F9D
:100CF000BB1F84839583A683B783828193810197E9
:100D00009383828384819581A681B781482F592F4F
:100D10006A2F7B2F41505040604070404F3F2FEF73
:100D200052072FEF62072FE37207F8F20BC081839F
:100D3000B382A2820C0D1D1D2E1D3F1D0483158341
:100D40002683378383E08083448155816681778160
:100D500077FF20C0B72FA62F952F842F817090701A
:100D6000A070B0707695679557954795842B952B15
:100D7000A62BB72B84839583A683B7838281938127
:100D800001969383828306C0C8E8D0E005C0C82DD1
:100D9000D92D02C0CE2FDF2F8C2F9D2FCDB7DEB7E0
:100DA000E0E1A0C5A0E2B0E0E7EDF6E08DC5B92F27
:100DB000A82F972F862F8D839E83AF83B887298393
:100DC0003A834B835C838C2F9D2F05966C2F7D2F50
:100DD000675E7F4F5AD38C2F9D2F01966C2F7D2FEE
:100DE0006F5E7F4F52D38C2F9D2F49966C2F7D2F96
:100DF0006F5E7F4F4C2F5D2F475F5F4F5DDE62D28E
:100E0000462F572F682F792F972F862F752F642FF6
:100E1000A096E2E075C5A0E2B0E0E0E1F7E054C5DD
:100E2000B92FA82F972F862F8D839E83AF83B887E6
:100E300029833A834B835C838C2F9D2F05966C2FDF
:100E40007D2F675E7F4F21D38C2F9D2F01966C2FB6
:100E50007D2F6F5E7F4F19D38A8991E089278A8B16
:100E60008C2F9D2F49966C2F7D2F6F5E7F4F4C2FBF
:100E70005D2F475F5F4F20DE25D2462F572F682F0B
:100E8000792F972F862F752F642FA096E2E038C513
:100E9000A8E1B0E0EDE4F7E011C5B92FA82F972F36
:100EA000862F8D839E83AF83B88729833A834B83B4
:100EB0005C838C2F9D2F05966C2F7D2F6F5E7F4F4F
:100EC000E4D28C2F9D2F01966C2F7D2F675F7F4F73
:100ED000DCD29989923008F478C08985823008F490
:100EE00078C02A893A8523272A8B943011F09230D2
:100EF00021F4981709F069C070C0843039F41D8A54
:100F00001E8A1F8A188E1C8A1B8A5FC0823019F4C1
:100F100084E0898B5AC02B893C898B859C85281B52
:100F2000390B3C8B2B8B8D899E89AF89B88DCD84F5
:100F3000DE84EF84F8888C159D05AE05BF0540F46E
:100F4000880F991FAA1FBB1F215030403C8B2B8B51
:100F5000EFE1F0E000E010E020E030E440E050E0BD
:100F600060E070E08C159D05AE05BF0540F0402B9C
:100F7000512B622B732B8C199D09AE09BF09369535
:100F8000279517950795880F991FAA1FBB1F3197A3
:100F900049F7042F152F262F372F0F771070207049
:100FA0003070003411052105310559F447FD09C0A1
:100FB0000097A105B10529F0405C5F4F6F4F7F4F4F
:100FC00040784D8B5E8B6F8B788F8C2F9D2F419649
:100FD00006C08C2F9D2F099602C088E890E072D140
:100FE000462F572F682F792F972F862F752F642F15
:100FF0006896E8E07FC4A8E1B0E0E0E0F8E064C40F
:10100000B92FA82F972F862F8D839E83AF83B88704
:1010100029833A834B835C838C2F9D2F05966C2FFD
:101020007D2F6F5E7F4F31D28C2F9D2F01966C2FBD
:101030007D2F675F7F4F29D28989823060F0898553
:10104000823048F08C2F9D2F41966C2F7D2F675F4B
:101050007F4F86D201C08FEF6896E2E051C4ACE0CA
:10106000B0E0E4E3F8E02EC4B92FA82F972F862F25
:1010700089839A83AB83BC838C2F9D2F01966C2F21
:101080007D2F6B5F7F4F01D28D81823069F182307D
:1010900058F1843039F02F81388537FD25C02F3144
:1010A000310544F08E81882321F100E010E020E03A
:1010B00030E823C08EE190E0821B930B09851A85EE
:1010C0002B853C8504C036952795179507958A95FD
:1010D000D2F78E81882389F030952095109501955F
:1010E0001F4F2F4F3F4F09C000E010E020E030E0DD
:1010F00004C00FEF1FEF2FEF3FE7602F712F822FFC
:10110000932F2C96E4E0FAC3A8E0B0E0E9E8F8E019
:10111000D5C3C62ED72EE82EF92E1A826115710579
:101120008105910519F482E0898361C083E0898398
:101130000EE110E01C830B83CD82DE82EF82F88605
:101140009F2D8E2D7D2D6C2D61D0282F392F215074
:10115000304037FF39C0EE27FF27E21BF30B81E059
:1011600090E0A0E0B0E00E2E04C0880F991FAA1FE7
:10117000BB1F0A94D2F70197A109B1098C219D21C7
:10118000AE21BF2141E050E060E070E00097A10592
:10119000B10521F440E050E060E070E004C0F69456
:1011A000E794D794C794EA95D2F7C42AD52AE62AB9
:1011B000F72ACD82DE82EF82F8868EE190E0821BF4
:1011C000930B9C838B8313C02115310581F0022E74
:1011D00004C0CC0CDD1CEE1CFF1C0A94D2F7CD829F
:1011E000DE82EF82F886021B130B1C830B838C2F8D
:1011F0009D2F019667D0462F572F682F792F972F55
:10120000862F752F642F2896E8E074C3CF92DF9263
:10121000EF92FF920F931F93062F172F282F392F2E
:10122000003080E0180781E0280780E0380758F494
:101230000F3F11052105310509F090F480E090E0A1
:10124000A0E0B0E016C00030E0E01E07E0E02E07AE
:10125000E1E03E0750F480E190E0A0E0B0E009C09A
:1012600088E090E0A0E0B0E004C088E190E0A0E079
:10127000B0E040E250E060E070E0481B590B6A0BC0
:101280007B0BC02ED12EE22EF32E04C0F694E794F1
:10129000D794C7948A95D2F7BF2DAE2D9D2D8C2D56
:1012A00080579F4FE82FF92F8081481B5109610912
:1012B0007109842F952F1F910F91FF90EF90DF9070
:1012C000CF900895CF92DF92EF92FF920F931F93EA
:1012D000A82FB92F14964D915D916D917C91179720
:1012E0001196EC9111978C91823020F460618FEF10
:1012F00090E0AEC0843009F4A5C0823009F49CC0EF
:10130000411551056105710509F499C012968D9139
:101310009C9113972FEF823892070CF05FC022E860
:101320003FEF281B390B2A3131057CF5C42ED52E11
:10133000E62EF72E022E04C0F694E794D794C794B5
:101340000A94D2F781E090E0A0E0B0E004C0880FFA
:10135000991FAA1FBB1F2A95D2F70197A109B109AE
:1013600084239523A623B72341E050E060E070E09A
:101370000097A105B10521F440E050E060E070E085
:101380004C295D296E297F2904C040E050E060E0CF
:1013900070E0B72FA62F952F842F8F779070A070B5
:1013A000B07080349105A105B10539F447FF09C03B
:1013B000405C5F4F6F4F7F4F04C0415C5F4F6F4F8A
:1013C0007F4F81E090E0403020E0520720E062074C
:1013D00020E4720748F580E090E026C0803891054F
:1013E0008CF5042F152F262F372F0F7710702070B4
:1013F0003070003411052105310539F447FF09C06B
:10140000405C5F4F6F4F7F4F04C0415C5F4F6F4F39
:101410007F4F77FD03C081589F4F06C07695679533
:101420005795479580589F4F97E0769567955795C4
:1014300047959A95D1F70CC080E090E005C080E018
:1014400090E006C08FEF90E040E050E060E070E098
:10145000982F979599279795A62FAF77E795EE2721
:10146000E79586953A2F392B282F2E2B842F952FF1
:10147000A32FB22F682F792F8A2F9B2F1F910F91A7
:10148000FF90EF90DF90CF900895A82FB92FE62F0F
:10149000F72F4C9111965C91119712968C9112979F
:1014A000682F6F7770E0982F991F9927991F1396CF
:1014B0002C911397822F880F892B90E0221F2227CF
:1014C000221F2183009739F54115510561057105EA
:1014D00011F482E029C082E89FEF9383828327E0A2
:1014E000440F551F661F771F2A95D1F783E080832D
:1014F00009C0440F551F661F771F82819381019792
:1015000093838283403080E0580780E0680780E45E
:10151000780778F320C08F3F910579F44115510584
:101520006105710519F484E08083089564FF03C0A8
:1015300081E0808310C010820EC08F57904093834B
:10154000828383E0808387E0440F551F661F771FE7
:101550008A95D1F7706444835583668377830895B1
:10156000CF93E82FF92FA62FB72F9081923008F450
:101570004CC08C91823008F448C0943069F42181C9
:10158000843039F411968C91119790E0821B910967
:1015900044C02223D1F13FC0843021F0923041F485
:1015A0008230B1F111968C9111978823A1F12DC051
:1015B000C181823001F111968C911197C817D9F42D
:1015C0008281938112962D913C91139728173907A8
:1015D00094F082179307BCF044815581668177812E
:1015E00014968D919D910D90BC91A02D8417950717
:1015F000A607B70718F4CC2341F00DC048175907C8
:101600006A077B0728F4CC2331F081E090E005C025
:1016100080E090E002C08FEF9FEFCF910895EBD86C
:101620002EE088E190E00FB6F894A89581BD0FBE3A
:1016300021BD8FD68C9A81E090E00197F1F784E08C
:1016400090E07BD31CD91092F6018C98789400E03E
:1016500010E0C0E0D0E0A8955DD5219681E0CA3EBB
:10166000D80740F48091860087FF02C0C098F3CF6E
:10167000C09AF1CF83E0C83ED807C0F480918600BD
:1016800084FFE9CF6091CD017091CE018091CF01AF
:101690009091D00117D98DEC91E060E070E044E0CA
:1016A00050E053D3809186008F7E22C085E0C63EF5
:1016B000D80748F48091860086FFCDCF30D880913E
:1016C00086008F7B15C086E0C034D807A0F48091D7
:1016D000860085FFC0CF8CEE91E0B6D88091EF01F7
:1016E00082958F70809387005CD8809186008F7D73
:1016F00080938600B0CFB1992EC01F5F1D30D8F007
:101700008091CD019091CE01A091CF01B091D001F7
:101710008C599F4FAF4FBF4F8093CD019093CE0117
:10172000A093CF01B093D001809186008067809311
:1017300086000F5F10E00D3008F48BCF8091CD0153
:101740009091CE01A091CF01B091D00188519C4FD2
:10175000AF4FBF4F2FC0B2997ACF1F5F1D30D8F067
:101760008091CD019091CE01A091CF01B091D00197
:1017700084569040A040B0408093CD019093CE011C
:10178000A093CF01B093D0018091860080678093B1
:1017900086000F5F10E0063008F45BCF8091CD012A
:1017A0009091CE01A091CF01B091D001885E93407D
:1017B000A040B0408093CD019093CE01A093CF0183
:1017C000B093D0018091860080678093860000E00E
:1017D00040CF97FB092E07260AD077FD04D027D0EB
:1017E00006D000201AF4709561957F4F0895F6F7A2
:1017F000909581959F4F089597FB092E05260ED051
:1018000057FD04D02AD00AD0001C38F450954095DA
:10181000309521953F4F4F4F5F4F0895F6F79095C4
:101820008095709561957F4F8F4F9F4F0895AA1BAC
:10183000BB1B51E107C0AA1FBB1FA617B70710F0BB
:10184000A61BB70B881F991F5A95A9F780959095ED
:10185000682F792F8A2F9B2F0895A1E21A2EAA1B99
:10186000BB1BEA2FFB2F0DC0AA1FBB1FEE1FFF1FC4
:10187000A217B307E407F50720F0A21BB30BE40B94
:10188000F50B661F771F881F991F1A9469F76095DB
:10189000709580959095262F372F482F592F6A2FB6
:1018A0007B2F8E2F9F2F08952F923F924F925F9202
:1018B0006F927F928F929F92AF92BF92CF92DF9260
:1018C000EF92FF920F931F93CF93DF93CDB7DEB7C5
:1018D000CA1BDB0B0FB6F894DEBF0FBECDBF099459
:1018E0002A88398848885F846E847D848C849B84B0
:1018F000AA84B984C884DF80EE80FD800C811B81BE
:10190000AA81B981CE0FD11D0FB6F894DEBF0FBEEC
:10191000CDBFCA2FDB2F0895FB01DC0102C001906F
:101920000D9241505040D8F70895AEE0B0E0EAE99A
:10193000FCE0C8CF0D891E8986E08C831A83098359
:101940008FEF9FE79E838D839E01275E3F4FCE01E1
:1019500001966F89788DA90108D0EF81F885E00F95
:10196000F11F10822E96E4E0C9CFACE0B0E0EAEBC4
:10197000FCE09ACF6C011B018A01FC0117821682E0
:10198000838181FFC4C12E010894411C511CF601C2
:101990009381F10193FD859193FF81911F0188232C
:1019A00009F4B1C1853239F493FD859193FF81919A
:1019B0001F01853221F490E0B601FDD1E8CFEE247D
:1019C000FF2420E02032B0F48B3269F08C3228F40E
:1019D000803251F0833271F40BC08D3239F0803394
:1019E00049F421602CC02260246029C0286027C0EF
:1019F000206125C027FD2CC0382F30533A3098F491
:101A000026FF08C08E2D880FE82EEE0CEE0CE80E97
:101A1000E30E15C08F2D880FF82EFF0CFF0CF80E6B
:101A2000F30E20620CC08E3221F426FD6CC12064BE
:101A300006C08C3611F4206802C0883649F4F101E2
:101A400093FD859193FF81911F01882309F0BACFFF
:101A5000982F9554933018F09052933028F40C5FDF
:101A60001F4FFFE3F9830DC0833631F0833771F0E8
:101A7000833509F05CC021C0F801808189830E5F45
:101A80001F4F420171E0A72EB12C15C062E0662EF7
:101A9000712C600E711EF8018080918026FF03C0BA
:101AA0006E2D70E002C06FEF7FEFC4012C8778D1FC
:101AB0005C0183012C852F7716C052E0652E712CB6
:101AC000600E711EF8018080918026FF03C06E2D8C
:101AD00070E002C06FEF7FEFC4012C8756D15C012C
:101AE0002C852068830123FD1EC007C080E290E0A2
:101AF000B6012C8760D1FA942C858F2D90E0A81622
:101B0000B906A0F310C0F40127FD859127FF81914C
:101B10004F0190E0B6012C874ED12C85F110FA943C
:101B20000894A108B108A114B10469F7E9C084368A
:101B300011F0893641F527FF08C0F80160817181F5
:101B4000828193810C5F1F4F09C0F8016081718110
:101B5000882777FD8095982F0E5F1F4F4FE6B42E94
:101B6000B22297FF09C090958095709561957F4F3F
:101B70008F4F9F4FF0E8BF2AA2012AE030E047D103
:101B8000782E741844C0853731F43FEEB32EB2225C
:101B90002AE030E025C099EFB92EB2228F36C1F08D
:101BA000803720F4883509F0AEC00DC0803721F0B1
:101BB000883709F0A8C002C020E1B22AB4FE0BC0E9
:101BC00084E0B82A08C0B4FE09C0E6E0BE2A06C018
:101BD00028E030E005C020E130E002C020E132E042
:101BE000B7FE08C0F80160817181828193810C5F2A
:101BF0001F4F07C0F8016081718180E090E00E5FA7
:101C00001F4FA20104D1782E7418FFE7BF22B6FE41
:101C10000BC02EEFB2227E1438F4B4FE07C0B2FC23
:101C200005C08FEEB82202C0A72C01C0AE2C8B2DB0
:101C300090E0B4FE0DC0FE01E70DF11D20812033C0
:101C400019F4E9EEBE2209C0A394B2FE06C004C096
:101C500086789070009709F0A3948B2C9924B3FC9C
:101C600013C0B0FE0EC0AF1428F4E72CEF0CEA1836
:101C7000AF2C07C0E72C05C080E290E0B6019BD0F6
:101C8000A394AF14C8F304C0AF1410F4FA1801C041
:101C9000FF2484FE0EC080E390E0B6018CD082FE6B
:101CA0001DC081FE03C088E590E010C088E790E089
:101CB0000DC0C40186789070009781F081FC02C04D
:101CC00080E201C08BE2B7FC8DE290E0B60173D0F8
:101CD00005C080E390E0B6016ED0EA947E14C8F3AC
:101CE0007A94F201E70DF11D808190E0B60163D096
:101CF0007720B1F705C080E290E0B6015CD0FA949D
:101D0000FF20C9F744CEF6012681378102C02FEFAC
:101D10003FEFC9012C96E2E1E3CDDC01CB01FC01F0
:101D2000E199FECF06C0FFBBEEBBE09A31960DB243
:101D30000D9241505040B8F70895E199FECF9FBBF6
:101D40008EBBE09A99278DB30895DC01A40FB51FCF
:101D50004150504040F0CB01840F951F2E9105D08B
:101D600041505040D8F70895262FE199FECF9FBBF0
:101D70008EBBE09A01970DB2021631F02DBB0FB663
:101D8000F894E29AE19A0FBE0895FC010590615023
:101D900070400110D8F7809590958E0F9F1F089581
:101DA000FC016150704001900110D8F7809590952A
:101DB0008E0F9F1F08950F931F93CF93DF938C0176
:101DC000EB018B8181FF1BC082FF0DC02E813F8103
:101DD0008C819D812817390764F4E881F98101938A
:101DE000F983E88306C0E885F985802F0995009777
:101DF00031F48E819F8101969F838E8302C00FEF05
:101E00001FEFC801DF91CF911F910F910895FA0143
:101E1000AA27283051F1203181F1E8946F936E7F29
:101E20006E5F7F4F8F4F9F4FAF4FB1E03ED0B4E01A
:101E30003CD0670F781F891F9A1FA11D680F791F5B
:101E40008A1F911DA11D6A0F711D811D911DA11D6C
:101E500020D009F468943F912AE0269F112430197C
:101E6000305D3193DEF6CF010895462F4770405D17
:101E70004193B3E00FD0C9F7F6CF462F4F70405DC6
:101E80004A3318F0495D31FD4052419302D0A9F721
:101E9000EACFB4E0A6959795879577956795BA951B
:101EA000C9F700976105710508959B01AC010A2EE1
:101EB00006945795479537952795BA95C9F7620FB8
:0E1EC000731F841F951FA01D0895F894FFCF77
:101ECE005AFF25642E2564204D487A20202020209C
:101EDE00202020005369676E616C203A2025642013
:101EEE00202020202000F0FF000000000000000055
:101EFE0000010202030303030404040404040404A3
:101F0E000505050505050505050505050505050573
:101F1E000606060606060606060606060606060653
:101F2E000606060606060606060606060606060643
:101F3E000707070707070707070707070707070723
:101F4E000707070707070707070707070707070713
:101F5E000707070707070707070707070707070703
:101F6E0007070707070707070707070707070707F3
:101F7E0008080808080808080808080808080808D3
:101F8E0008080808080808080808080808080808C3
:101F9E0008080808080808080808080808080808B3
:101FAE0008080808080808080808080808080808A3
:101FBE000808080808080808080808080808080893
:101FCE000808080808080808080808080808080883
:101FDE000808080808080808080808080808080873
:101FEE000808080808080808080808080808080863
:00000001FF
