:100000004BC0C1C1FAC264C063C062C061C060C0FD
:100010005FC05EC05DC05CC05BC05AC059C058C004
:1000200057C056C055C009022200010100802809AE
:100030000400000103000000092101010001221653
:100040000007058103080064120110010000000888
:10005000C016DF0500010102000112035500530024
:10006000420052006100640069006F0012034F00FB
:10007000700065006E0057006100760065000403A3
:1000800009040600FF0901A101150026FF007508FB
:1000900095010900B20201C011241FBECFE5D4E0D2
:1000A000DEBFCDBF10E0A0E6B0E0E0ECFDE103C0B4
:1000B000C89531960D92AC39B107D1F711E0ACE992
:1000C000B0E001C01D92A532B107E1F7FCDA76CEAF
:1000D00097CFCF93C62F2091B00024FF07C0209167
:1000E000B10038E823272093B10003C02AE520930C
:1000F000B000DC01E2EBF0E08C2F8E0F9D9191932C
:100100008E13FCCF6C2F82EB90E039D1CC5FC09383
:10011000B000CF9108951F93CF93DF936091C100FA
:10012000635067FDB9C08091BE00CCE0D0E0C81B31
:10013000D109CB53DF4F8091BD008D3209F09BC0B8
:10014000683009F0A7C083EC8093A5008AE580930E
:10015000600010929C008881807631F0CE0105D33A
:100160008F3F09F477C07DC09A811092AE008981DB
:10017000811106C01092AF002EEA30E082E065C027
:10018000853019F49093C2005DC0863009F044C0F8
:100190008B81813019F488E490E01AC0823041F4F8
:1001A00086E290E09093C0008093BF0082E230C06E
:1001B0008330C9F4911108C08EE790E09093C0009D
:1001C0008093BF0084E024C0913041F48CE690E03D
:1001D0009093C0008093BF0082E11AC09230B9F4BE
:1001E0008AE590E0F5CF813241F488E390E0909386
:1001F000C0008093BF0089E00BC0823241F482E8E6
:1002000090E09093C0008093BF0086E101C080E041
:1002100090E490939C0025C0883069F0893019F4EF
:100220009093C4000FC08A3049F08B3059F48BE4AE
:100230008093B10007C024EC30E002C02EEA30E029
:1002400081E003C02EEA30E080E03093C0002093CC
:10025000BF0007C0988197FD8E8190E890939C0025
:1002600007C09F81911104C09E81981708F4892FBF
:10027000809361000FC080919C0087FF0BC0CE016E
:1002800013D28F3F21F48EE18093600003C081116F
:10029000109261001092C1008091600084FF3FC005
:1002A000809161008F3FD9F1182F893008F018E054
:1002B000811B809361008091A50098E88927809335
:1002C000A500112301F1E091BF00F091C0008091E1
:1002D0009C0086FF0AC0A6EAB0E0812F8A0F9491A5
:1002E0009D9331968A13FBCF0AC0EF01A6EAB0E0D6
:1002F000812F8A0F99919D93FE018A13FBCFF09372
:10030000C000E093BF00612F86EA90E038D01C5F08
:100310001C3019F08FEF809361001093600084E12E
:1003200090B3947131F48150D9F71092C2001092B9
:10033000BC00DF91CF911F91089585B7826085BF82
:100340008BB780648BBF8BE48093B1008AE5809388
:10035000B0000895A82FB92F80E090E041E050EA66
:10036000609530E009C02D9182279795879510F010
:1003700084279527305EC8F36F5FA8F30895EADFFE
:100380008D939D930895CF93CFB7CF93C395849BBF
:10039000E9F7849B09C0849B07C0849B05C0849BAC
:1003A00003C0849B01C0A3C0DF93C091BE00DD27C2
:1003B000CB53DF4F849B02C0DF91EBCF2F930F9382
:1003C0001F9300B32FEF04FB20F94F933F9310B31B
:1003D0004FEF012704FB21F93BE031C04E7F012F95
:1003E00010B3216028C0102F4D7F2260000000B3A1
:1003F00029C04B7F2460012F000010B32BC010B325
:10040000477F28602AC04F7E00B320612CC04F7DFB
:1004100010B320622FC04F7B00B3206432C042274C
:1004200000B349934FEF0000102714FB20F910B3DD
:100430001471C9F1297F91F2012704FB21F900B35E
:10044000237F89F2315058F1102714FB22F910B3A1
:10045000277E79F2012704FB23F92F7C81F200B378
:10046000102714FB24F92F7971F200C010B3012773
:1004700004FB25F92F7359F200C000B3102714FBB9
:1004800026F9223040F200C010B3012704FB27F9FF
:10049000243028F64F77206810B30000F9CF10E41D
:1004A0001ABF002719C03B503195C31BD04010E440
:1004B0001ABF0881033CF9F00B34E9F02091BC002D
:1004C0001981110F1213EDCF4A81441F093641F1F2
:1004D0000D3211F0013E29F70093C3003F914F9177
:1004E0001F910F912F91DF91CAB7C6FD4FCFCF91CA
:1004F000CFBFCF9118952091C300222379F310919B
:10050000C100112369F534306AF13093C1002093A2
:10051000BD001091BE003BE0311B3093BE0022C0F5
:100520000091C1000130E4F40AE54F7049F43091C4
:10053000600034FD19C000936000C5EAD0E018C027
:100540003091B00034FD10C00093B000C1EBD0E09A
:100550000FC02795A8F45150A9F4220F0000F9CF3D
:100560004AE503C042ED01C0432FC4E1D0E032E0D0
:1005700011B31461949A11BB02B320E414E15F93A8
:10058000012756E002BB279520F4515021F4220F99
:10059000F9CF012756E000003B5A02BBD0F2279565
:1005A00028F4515029F4220F0000F9CF012756E01A
:1005B000279502BB20F4515021F4220FF9CF0127D7
:1005C00056E02991332302BB21F60B7E1091C20025
:1005D000110FC651D04002BB11F01093BC0010E4C3
:1005E0001ABF006111B31B7E402F4B7E5F9100C08C
:1005F00000C002BB11BB42BB71CF1F920F920FB65E
:100600000F9211242F933F934F935F936F938F9388
:100610009F93EF93FF93E2EFF0E08BB78F778BBF61
:100620004EE020EB34E0C9010197F1F783992BC02C
:100630004150C9F7839BFECF64E02CE231E01CC03F
:100640008399FECF839BFECF40E007C0C90101978D
:10065000F1F74F5F4E3109F416C08399F7CF8081CF
:100660008695483008F401C080688083515041F776
:1006700061503196662311F058E0E2CF809162001C
:100680008860809362008BB780688BBFFF91EF9189
:100690009F918F916F915F914F913F912F910F900B
:1006A0000FBE0F901F9018951F93CF93DF93EC010F
:1006B000162F80912401833021F0843009F050C03E
:1006C00022C0462F50E080919D0090E0BE018A50EC
:1006D0009F4F33DB80919D00810F80939D001430EC
:1006E00010F480E03EC044E050E066EF70E08BED37
:1006F00090E023DB809162008B7F826780936200B1
:10070000109224012BC080919E008F3F79F441E02C
:1007100050E0BE018EE990E010DB41E050E064E083
:1007200070E08EE990E02ADB21961150412F50E0D5
:1007300060919D0070E0605F7F4FCE011FDB2091D4
:100740009D00210F20939D0080919E0030E044E0A9
:10075000849FC0011124281739071CF210929D00B4
:1007600081E0DF91CF911F910895FC018081807617
:10077000803409F041C08181813031F582E080937D
:10078000240122818091DB009091DC00A091DD00AA
:10079000B091DE0020FF05C08C599F4FAF4FBF4F77
:1007A00004C084569109A109B1098093DB0090939C
:1007B000DC00A093DD00B093DE00809162008B7FAF
:1007C0008267809362002BC0823049F581E080937C
:1007D000240144E050E06BED70E080EA90E0ADDA97
:1007E000809163008093A40080EA90E09093C00021
:1007F0008093BF0085E00895803289F48181833041
:1008000019F410929D0007C0843049F410929D00A5
:100810009FEF90939E00809324018FEF089580E0D6
:100820000895CF92DF92EF92FF926091DB0070917A
:10083000DC008091DD009091DE0024E630E040E0B5
:1008400050E0D1D969017A0121E0A6016CE670E09F
:100850008FED90E09DD18091620082FF1CC040E14D
:1008600050E06FED70E08FEF90E067DA83E4809303
:100870000A0188E480930B018AE380930C0185E2EE
:1008800080930D0140919F0050E020E06FEF70E0F9
:100890008FED90E07DD16FED70E080E036D1FF907C
:1008A000EF90DF90CF9008958091620040916300B7
:1008B00050E020E080FF03C06AE770E002C06BE810
:1008C00070E08FED90E064D16FED70E081E01DC1CC
:1008D000CFD088B3866088BB87B3866087BB44E08F
:1008E00050E060E070E08BED90E030DA84E090E082
:1008F0003DDA80939E0085E090E038DA80939F0097
:10090000089524EA26BF06B607FEFDCF20EC23B9E2
:1009100024E826BF06B607FEFDCFFC0185E094E87B
:10092000219123B996BF06B607FEFDCF8150C1F7CE
:1009300084E986BF81E0089524EA26BF06B607FE53
:10094000FDCF21EC23B924E826BF06B607FEFDCF74
:10095000FC0185E024EC26BF06B607FEFDCF93B16F
:1009600091938150C1F784E986BF81E0089595B3E2
:10097000906395BB94B3906394BB11B890E990B920
:1009800012B894E096BF99E290931F0195EF90936F
:10099000200190E690932101882311F082E101C0AB
:1009A00082E380932201109223018FE191E0A9CF8D
:1009B000615E71098109904C22E0660F771F881FE4
:1009C000991F2A95D1F75AD42FE632E143E052E439
:1009D0002CD30ED160932001872F99278F739927ED
:1009E00080931F011092210182E1809322011092D5
:1009F00023018FE191E085CF84FF02C0AB9A01C053
:100A0000AB9885FF02C0AA9A01C0AA9886FF02C0CF
:100A1000A99A01C0A99887FF02C0A89A01C0A89806
:100A2000979A979880FF02C0AB9A01C0AB9881FF5C
:100A300002C0AA9A01C0AA9882FF02C0A99A01C066
:100A4000A99883FF02C0A89A01C0A898979A97987E
:100A5000089597989598D0DF959A80EA8A95F1F74E
:100A600008959798959AC8DF80EA8A95F1F70895D6
:100A7000CF93DF9384B38F6084BBB89A81B3806EC9
:100A800081BB969880E395E70197F1F783E3E1DF77
:100A90008AE991E02CE231E0F9013197F1F7019711
:100AA000D9F782E3D6DF88EE93E02CE231E0F9015A
:100AB0003197F1F70197D9F788E2CBDF84EF91E026
:100AC0002CE231E0F9013197F1F70197D9F786E08F
:100AD000C0DF84EF91E02CE231E0F9013197F1F7CA
:100AE0000197D9F78CE0B5DFC8EBDBE0CE010197C9
:100AF000F1F781E0AEDFCE010197F1F780E8A9DFE1
:100B00002197F1F7DF91CF910895CF93DF93EB0118
:100B1000882311F080EC01C080E89BDF8881A1DF91
:100B200089918111FBCFDF91CF910895A0E1B0E0D1
:100B3000EBE9F5E080C89B01F12C0AE010E0E1E070
:100B4000F0E0EC0FFD1FEF0DF11DB80139D8805D0D
:100B50008083F394CB01009791F7D90120E030E036
:100B6000AE014F5F5F4F4F0D511D61E0FA01E20F83
:100B7000F31F319780818D93862F821B215031097D
:100B8000922F91959F1590F390E06096E5E06FC8E5
:100B9000A0E0B0E0EDECF5E047C8EC018B017A0194
:100BA000822ECA016AE070E00BD86B015C018EE214
:100BB000982EF8018081853281F4BE01811002C037
:100BC000C70107C0C601B2DFC80FD91F9992BE0185
:100BD000C501ACDFC80FD91F01C08993F80181910D
:100BE0008F018111E6CF1882CDB7DEB7ECE038C8AF
:100BF000CF92DF92EF92FF920F931F93C62ED72EC4
:100C0000E82EF92E20E030E040E05FE4B6D287FD28
:100C100010C020E030E040E05FE49F2D8E2D7D2D60
:100C20006C2DD2D1DAD2062F172F282F392F30581A
:100C300009C09F2D8E2D7D2D6C2DCFD2062F172F05
:100C4000282F392F602F712F822F932F1F910F91F3
:100C5000FF90EF90DF90CF900895A4E0B0E0E2E342
:100C6000F6E0DEC7E82EF92EC42ED52EE82FF92F98
:100C70008081823008F476C1E62FF72F9081923080
:100C800008F46BC1843089F4943009F06BC1EE2D07
:100C9000FF2D9181E62FF72F8181981709F462C10A
:100CA000A4E6EA2EA0E0FA2E5DC1943009F455C105
:100CB0009230B9F4823009F055C188E0EE2DFF2D55
:100CC000A42FB52F01900D928A95E1F7E62FF72F0B
:100CD0008181EE2DFF2D91818923E42FF52F8183D2
:100CE0003FC1823009F439C1EE2DFF2D82819381FD
:100CF000E62FF72FA281B381EE2DFF2D0481158100
:100D000026813781E62FF72F84809580A680B780D3
:100D1000E82FF92FEA1BFB0B4E2F5F2FF7FF04C0C4
:100D2000442755274E1B5F0B403251050CF07DC008
:100D30001E161F06DCF5482C592C6A2C7B2C042E21
:100D400004C076946794579447940A94D2F74982E2
:100D50005A826B827C8244244394512C612C712CE6
:100D600004C0440C551C661C771C4A95D2F741E020
:100D7000441A510861087108482059206A207B20D4
:100D800088248394912CA12CB12C452846284728EF
:100D900021F4812C912CA12CB12C49805A806B809C
:100DA0007C8084289528A628B7284DC0EF2B09F40D
:100DB0004AC0840F951F402E512E622E732E042E92
:100DC00004C076946794579447940A94D2F7498262
:100DD0005A826B827C8244244394512C612C712C66
:100DE00004C0440C551C661C771C4A95D2F741E0A0
:100DF000441A51086108710840225122622273226C
:100E000001E010E020E030E045284628472821F4A2
:100E100000E010E020E030E049805A806B807C8068
:100E200004291529262937290EC0A817B9072CF43B
:100E3000812C912CA12CB12C06C08A2F9B2F00E075
:100E400010E020E030E0EE2DFF2D4181E62FF72F5E
:100E50005181451709F450C0442369F0482C592C9E
:100E60006A2C7B2C401A510A620A730A372D262DF0
:100E7000152D042D04C0081919092A093B0937FD4D
:100E800006C0EC2DFD2D1182938382830DC041E0BD
:100E9000EC2DFD2D41839383828330952095109511
:100EA00001951F4F2F4F3F4F0483158326833783B0
:100EB0000FC0880F991FAA1FBB1FEC2DFD2D848327
:100EC0009583A683B78382819381019793838283DD
:100ED000EC2DFD2D84819581A681B781482F592F56
:100EE0006A2F7B2F41505109610971094F3F5F4FB4
:100EF0006F4F7F43F0F20DC0EC2DFD2D41839383A6
:100F00008283080D191D2A1D3B1D0483158326832A
:100F1000378383E0EC2DFD2D8083448155816681EC
:100F2000778177FF1DC0B72FA62F952F842F817053
:100F30009927AA27BB277695679557954795842BC0
:100F4000952BA62BB72B84839583A683B7838281A9
:100F5000938101969383828303C0E62EF72E02C00D
:100F6000EC2CFD2C8E2D9F2D2496E0E175C6A0E281
:100F7000B0E0ECEBF7E062C66D8F7E8F8F8F98A3A9
:100F8000298F3A8F4B8F5C8F6C2F7D2F6F5E7F4F39
:100F90008C2F9D2F4D96C1D26C2F7D2F675F7F4F79
:100FA0008C2F9D2F4996B9D24C2F5D2F4F5F5F4FED
:100FB0006C2F7D2F675F7F4F8C2F9D2F41964DDECD
:100FC000D6D1A096E2E056C6A0E2B0E0E9EEF7E0A6
:100FD00035C66D8F7E8F8F8F98A3298F3A8F4B8F59
:100FE0005C8F6C2F7D2F6F5E7F4F8C2F9D2F4D96CA
:100FF00094D26C2F7D2F675F7F4F8C2F9D2F49964A
:101000008CD28A8591E089278A874C2F5D2F4F5F8C
:101010005F4F6C2F7D2F675F7F4F8C2F9D2F4196E9
:101020001CDEA5D1A096E2E025C6A8E1B0E0EAE189
:10103000F8E0FEC56D8B7E8B8F8B988F298B3A8B5A
:101040004B8B5C8B6C2F7D2F675F7F4F8C2F9D2F81
:10105000459663D26C2F7D2F6F5F7F4F8C2F9D2F16
:1010600041965BD29985923008F479C089818230AB
:1010700008F479C02A853A8123272A87943011F011
:10108000923019F498136BC072C0843039F41D8605
:101090001E861F86188A1C861B8604C0823031F487
:1010A00084E089878C2F9D2F099663C08B859C8552
:1010B0002B813C81821B930B9C878B874D855E85A2
:1010C0006F857889CD80DE80EF80F8844C155D05D2
:1010D0006E057F0538F4440F551F661F771F019773
:1010E0009C878B87EFE1F0E000E010E020E030E447
:1010F00080E090E0A0E0B0E04C155D056E057F0556
:1011000040F0802B912BA22BB32B4C195D096E095B
:101110007F093695279517950795440F551F661F2C
:10112000771F319749F7082F192F2A2F3B2F0F7759
:10113000112722273327003411052105310559F4E1
:1011400087FD09C0452B462B472B29F0805C9F4F1C
:10115000AF4FBF4F80788D879E87AF87B88B8C2F1E
:101160009D2F099606C08C2F9D2F019602C084E604
:1011700090E0FDD06896E8E077C5A8E1B0E0E2EC49
:10118000F8E05CC56D8B7E8B8F8B988F298B3A8BAB
:101190004B8B5C8B6C2F7D2F675F7F4F8C2F9D2F30
:1011A0004596BBD16C2F7D2F6F5F7F4F8C2F9D2F6E
:1011B0004196B3D18985823060F08981823048F0D0
:1011C0006C2F7D2F6F5F7F4F8C2F9D2F099617D22D
:1011D00001C08FEF6896E2E04DC5ACE0B0E0E2EF11
:1011E000F8E02AC569877A878B879C876C2F7D2FCB
:1011F0006F5F7F4F8C2F9D2F09968FD18981823011
:1012000091F1823080F1843041F48A81882331F178
:1012100000E010E020E030E82AC02B813C8137FD5F
:1012200022C02F3131058CF78EE190E0821B930BA9
:101230000D811E812F81388504C03695279517951D
:1012400007958A95D2F78A81882389F03095209571
:10125000109501951F4F2F4F3F4F09C00FEF1FEF04
:101260002FEF3FE704C000E010E020E030E0602F07
:10127000712F822F932F2C96E4E0FAC4A8E0B0E0FF
:10128000E3E4F9E0D5C4062F172F282F392F1A824F
:10129000611571058105910519F482E0898360C0AB
:1012A00083E089834EE150E05C834B83932F822F50
:1012B000712F602F28D5019797FF3BC0EE27FF279E
:1012C000E81BF90B41E050E060E070E00E2E04C036
:1012D000440F551F661F771F0A94D2F741505109DA
:1012E000610971094023512362237323CC24C394E1
:1012F000D12CE12CF12C452B462B472B21F4C12C72
:10130000D12CE12CF12C04C0369527951795079523
:10131000EA95D2F70C291D292E293F290D831E831A
:101320002F8338872EE130E0281B390B3C832B8339
:1013300017C0009729F40D831E832F83388710C0B0
:10134000082E04C0000F111F221F331F0A94D2F76A
:101350000D831E832F833887481B590B5C834B8377
:101360008C2F9D2F019603D02896E8E07DC40F9323
:101370001F93CF93DF93A82FB92F14964D915D91B2
:101380006D917C9117971196EC9111978C91823009
:1013900020F460618FEF90E0B1C0843009F4A8C000
:1013A000823009F49FC0411551056105710509F4AA
:1013B0009CC012962D913C91139722388FEF3807DD
:1013C0000CF05EC0C2E8DFEFC21BD30BCA31D105FF
:1013D00084F5042F152F262F372F0C2E04C0369599
:1013E0002795179507950A94D2F781E090E0A0E041
:1013F000B0E00C2E04C0880F991FAA1FBB1F0A94CF
:10140000D2F70197A109B10984239523A623B72315
:1014100041E050E060E070E0892B8A2B8B2B21F4B7
:1014200040E050E060E070E0402B512B622B732BCA
:1014300004C040E050E060E070E0B72FA62F952F89
:10144000842F8F779927AA27BB2780349105A10580
:10145000B10539F447FF09C0405C5F4F6F4F7F4FC4
:1014600004C0415C5F4F6F4F7F4F81E090E04115BA
:101470005105610520E4720768F580E090E02AC01C
:1014800020383105ACF5B72FA62F952F842F8F77F5
:101490009927AA27BB2780349105A105B10539F406
:1014A00047FF09C0405C5F4F6F4F7F4F04C0415CF6
:1014B0005F4F6F4F7F4F77FD05C0822F932F81586D
:1014C0009F4F08C07695679557954795822F932F24
:1014D00080589F4F97E076956795579547959A95D1
:1014E000D1F70CC080E090E005C080E090E006C03D
:1014F0008FEF90E040E050E060E070E0982F96952C
:10150000E0FB97F9362F80FB37F9642F752F832F77
:10151000DF91CF911F910F910895CF92DF92EF92BB
:10152000A82FB92FE62FF72FCC901196DC901197AA
:1015300012968C9112973FE7E32EE8226E2D5D2DD7
:101540004C2D70E0982F991F9927991F13962C9175
:10155000822F880F892B90E027FB222720F92183F7
:10156000009729F5411551056105710511F482E0D7
:1015700027C082E89FEF9383828327E0440F551FA3
:10158000661F771F2A95D1F783E0808309C0440F37
:10159000551F661F771F82819381019793838283F2
:1015A00041155105610580E4780788F320C08F3F1D
:1015B000910579F4411551056105710519F484E02F
:1015C000808319C0E4FE03C081E0808310C01082D4
:1015D0000EC08F5791099383828383E0808387E0D5
:1015E000440F551F661F771F8A95D1F77064448397
:1015F000558366837783EF90DF90CF900895CF93E4
:10160000E82FF92FA62FB72F9081923008F452C0FF
:101610008C91823008F44EC0943071F4843039F4E7
:1016200011962C9130E08181281B310948C08181BD
:10163000882309F43FC03BC0843029F411968C9173
:10164000811138C034C0923019F48230B9F735C0F6
:10165000823069F3C18111968C911197C8131DC016
:101660002281338112968D919C9113978217930753
:101670000CF413C0281739070CF417C044815581A6
:101680006681778114968D919D910D90BC91A02DCE
:1016900084179507A607B70718F4C11108C00AC038
:1016A000481759076A077B0740F4C11103C02FEFA1
:1016B0003FEF05C021E030E002C020E030E0822FA3
:1016C000932FCF910895A6E0B0E0E8E6FBE0A8C232
:1016D00019821A821B821C821E821D82F9D82EE07A
:1016E00088E190E00FB6F894A89581BD0FBE21BDAA
:1016F00024D68C9A86EF99E02CE231E0F9013197FB
:10170000F1F70197D9F787E090E030D330D9109204
:1017100024018C988B9A939A85B7816085BF8BB78B
:1017200080688BBF7894712C512C412C612C00E087
:1017300010E038E5C32E35E1D32EEE24E394F12CEE
:1017400040EE842E45EA942EAA24A394B12C02C024
:1017500000E010E0A895DFD40F5F1F4F809162007A
:101760000A3E21E0120730F487FF02C0C098F2CF92
:10177000C09AF0CF083032E0130708F0DBC083FFD7
:10178000E9CF42E050E064EF70E0CE010596D5D29B
:10179000552039F0872D880F782E770C770C780E2E
:1017A00001C0712C8D819E8184342BEB920709F44A
:1017B00074C0FCF482352DEA920709F4ADC054F4EC
:1017C0008E3521EA920709F49BC08A35954A09F0C3
:1017D000ACC09CC020916200873438EB9307B9F10C
:1017E00085343AEB930749F18A34954B09F09DC053
:1017F00096C0883137EE930709F47FC07CF48034BB
:101800003FEB930709F45CC08C3123EE920709F497
:101810007BC082349D4B09F088C07BC08C3023EFA5
:10182000920709F468C0883037EF930709F46AC05B
:101830008631994E09F079C074C02460209362000B
:1018400060919F00662309F46FC0615010C024604E
:101850002093620060919F00262F30E080919E00CF
:1018600090E00197281739070CF05EC06F5F609316
:101870009F0070E06C5F7F4F660F771F660F771FCA
:1018800044E050E08BED90E061D244E050E065E050
:1018900070E08FE990E072D247C0809162008B7F48
:1018A0008260809362008091DB009091DC00A091C7
:1018B000DD00B091DE0084569109A109B10912C082
:1018C000809162008B7F8260809362008091DB0058
:1018D0009091DC00A091DD00B091DE008C599F4F0B
:1018E000AF4FBF4F8093DB009093DC00A093DD00EF
:1018F000B093DE0019C0739414C07394739411C034
:1019000033E008C084E009C095E00AC026E0720E0A
:1019100008C037E0730E05C088E0780E02C099E079
:10192000790E5524539401C0512C80916200877F19
:10193000806767C0083E23E0120708F065C084FF97
:101940003AC08091DB009091DC00A091DD00B09165
:10195000DE00813E35EA930731E0A307B1054CF084
:101960008092DB009092DC00A092DD00B092DE005D
:101970000DC088359541A140B10544F4C092DB000B
:10198000D092DC00E092DD00F092DE006091DB009E
:101990007091DC008091DD009091DE0009D844E078
:1019A00050E060E070E08BED90E0E8D18091620063
:1019B0008F7E809362008091620086FF06C031D7DF
:1019C000809162008F7B809362008091620085FF2E
:1019D000C1CE8AEF90E0B0D78091FD0082958F70E4
:1019E000809363009091FC008091620097FF02C099
:1019F000816001C08E7F8093620056D78091620023
:101A00008F7D80936200A6CE511001C021C05394F7
:101A10003CE33515F0F484678093620080919E006A
:101A20007816B0F470929F00672D70E06C5F7F4F66
:101A3000660F771F660F771F44E050E08BED90E054
:101A400085D144E050E065E070E08FE990E096D108
:101A5000512CB19931C063948CE08615E0F48091EB
:101A6000DB009091DC00A091DD00B091DE008C598C
:101A70009F4FAF4FBF4F8093DB009093DC00A0934C
:101A8000DD00B093DE00809162008B7F82678093DF
:101A900062004394612C9CE0941508F050C0809142
:101AA000DB009091DC00A091DD00B091DE00885158
:101AB0009C4FAF4FBF4F31C0B2993FC063942CE0F1
:101AC0002615E0F48091DB009091DC00A091DD0010
:101AD000B091DE0084569109A109B1098093DB0021
:101AE0009093DC00A093DD00B093DE008091620053
:101AF0008B7F8267809362004394612C35E03415BC
:101B0000F0F48091DB009091DC00A091DD00B091B9
:101B1000DE00885E9340A109B1098093DB009093B9
:101B2000DC00A093DD00B093DE00809162008B7F2B
:101B3000826780936200412C02C0412C612C80910D
:101B4000620082FD05CE81FF03CE1E821D822AC067
:101B50006C5F7F4F660F771F660F771F44E050E082
:101B6000CE010196F3D04091DB005091DC006091F2
:101B7000DD007091DE0089819A81AB81BC814817BC
:101B800059076A077B0749F48D8180939F008091F4
:101B900062008466809362000DC08D819E810196F3
:101BA0009E838D836D817E8180919E0090E0681779
:101BB000790774F2809162008D7F80936200C8CDB6
:101BC00097FB072E16F4009406D077FD08D05ED060
:101BD00007FC05D03EF4909581959F4F0895709530
:101BE00061957F4F0895052E97FB16F4009406D05B
:101BF00057FD0CD061D007FC09D07EF490958095FC
:101C0000709561957F4F8F4F9F4F089550954095E8
:101C1000309521953F4F4F4F5F4F08952F923F9240
:101C20004F925F926F927F928F929F92AF92BF92EC
:101C3000CF92DF92EF92FF920F931F93CF93DF9398
:101C4000CDB7DEB7CA1BDB0B0FB6F894DEBF0FBEF5
:101C5000CDBF09942A88398848885F846E847D8442
:101C60008C849B84AA84B984C884DF80EE80FD8044
:101C70000C811B81AA81B981CE0FD11D0FB6F894BA
:101C8000DEBF0FBECDBFCA2FDB2F0895AA1BBB1B23
:101C900051E107C0AA1FBB1FA617B70710F0A61B6C
:101CA000B70B881F991F5A95A9F780959095682FB3
:101CB000792F8A2F9B2F0895A1E21A2EAA1BBB1BF6
:101CC000EA2FFB2F0DC0AA1FBB1FEE1FFF1FA2177D
:101CD000B307E407F50720F0A21BB30BE40BF50BE9
:101CE000661F771F881F991F1A9469F76095709572
:101CF00080959095262F372F482F592F6A2F7B2FAD
:101D00008E2F9F2F089507D084FF0895862F972F39
:101D100002D0805F0895AA27992329F4A85F982B01
:101D200011F480E10895903118F4AD5F9295A39578
:101D3000990FE8F78A2F99270895FB01DC0102C06B
:101D400001900D9241505040D8F70895DC01CB012D
:101D5000FC01E199FECF06C0FFBBEEBBE09A3196D5
:101D60000DB20D9241505040B8F70895E199FECF61
:101D70009FBB8EBBE09A99278DB30895DC01A40F19
:101D8000B51F4150504040F0CB01840F951F2E915C
:101D900005D041505040D8F70895262FE199FECF45
:101DA0009FBB8EBBE09A01970DB2021631F02DBB9E
:101DB0000FB6F894E29AE19A0FBE0895F894FFCF17
:101DC0005AFFF2FF000000000000000025204D48EF
:101DD0007A2020202020202020005369676E616C2B
:101DE0003A202520205354455220005369676E61E4
:0C1DF0006C3A202520204D4F4E4F200063
:00000001FF
